{
  "_format": "hh-sol-artifact-1",
  "contractName": "NFTCollectible",
  "sourceName": "contracts/NFTCollectible.sol",
  "abi": [
    {
      "inputs": [
        {
          "internalType": "string",
          "name": "baseURI",
          "type": "string"
        }
      ],
      "stateMutability": "nonpayable",
      "type": "constructor"
    },
    {
      "anonymous": false,
      "inputs": [
        {
          "indexed": true,
          "internalType": "address",
          "name": "owner",
          "type": "address"
        },
        {
          "indexed": true,
          "internalType": "address",
          "name": "approved",
          "type": "address"
        },
        {
          "indexed": true,
          "internalType": "uint256",
          "name": "tokenId",
          "type": "uint256"
        }
      ],
      "name": "Approval",
      "type": "event"
    },
    {
      "anonymous": false,
      "inputs": [
        {
          "indexed": true,
          "internalType": "address",
          "name": "owner",
          "type": "address"
        },
        {
          "indexed": true,
          "internalType": "address",
          "name": "operator",
          "type": "address"
        },
        {
          "indexed": false,
          "internalType": "bool",
          "name": "approved",
          "type": "bool"
        }
      ],
      "name": "ApprovalForAll",
      "type": "event"
    },
    {
      "anonymous": false,
      "inputs": [
        {
          "indexed": true,
          "internalType": "address",
          "name": "previousOwner",
          "type": "address"
        },
        {
          "indexed": true,
          "internalType": "address",
          "name": "newOwner",
          "type": "address"
        }
      ],
      "name": "OwnershipTransferred",
      "type": "event"
    },
    {
      "anonymous": false,
      "inputs": [
        {
          "indexed": true,
          "internalType": "address",
          "name": "from",
          "type": "address"
        },
        {
          "indexed": true,
          "internalType": "address",
          "name": "to",
          "type": "address"
        },
        {
          "indexed": true,
          "internalType": "uint256",
          "name": "tokenId",
          "type": "uint256"
        }
      ],
      "name": "Transfer",
      "type": "event"
    },
    {
      "inputs": [],
      "name": "MAX_PER_MINT",
      "outputs": [
        {
          "internalType": "uint256",
          "name": "",
          "type": "uint256"
        }
      ],
      "stateMutability": "view",
      "type": "function"
    },
    {
      "inputs": [],
      "name": "MAX_SUPPLY",
      "outputs": [
        {
          "internalType": "uint256",
          "name": "",
          "type": "uint256"
        }
      ],
      "stateMutability": "view",
      "type": "function"
    },
    {
      "inputs": [],
      "name": "PRICE",
      "outputs": [
        {
          "internalType": "uint256",
          "name": "",
          "type": "uint256"
        }
      ],
      "stateMutability": "view",
      "type": "function"
    },
    {
      "inputs": [
        {
          "internalType": "address",
          "name": "to",
          "type": "address"
        },
        {
          "internalType": "uint256",
          "name": "tokenId",
          "type": "uint256"
        }
      ],
      "name": "approve",
      "outputs": [],
      "stateMutability": "nonpayable",
      "type": "function"
    },
    {
      "inputs": [
        {
          "internalType": "address",
          "name": "owner",
          "type": "address"
        }
      ],
      "name": "balanceOf",
      "outputs": [
        {
          "internalType": "uint256",
          "name": "",
          "type": "uint256"
        }
      ],
      "stateMutability": "view",
      "type": "function"
    },
    {
      "inputs": [],
      "name": "baseTokenURI",
      "outputs": [
        {
          "internalType": "string",
          "name": "",
          "type": "string"
        }
      ],
      "stateMutability": "view",
      "type": "function"
    },
    {
      "inputs": [
        {
          "internalType": "uint256",
          "name": "tokenId",
          "type": "uint256"
        }
      ],
      "name": "getApproved",
      "outputs": [
        {
          "internalType": "address",
          "name": "",
          "type": "address"
        }
      ],
      "stateMutability": "view",
      "type": "function"
    },
    {
      "inputs": [
        {
          "internalType": "address",
          "name": "owner",
          "type": "address"
        },
        {
          "internalType": "address",
          "name": "operator",
          "type": "address"
        }
      ],
      "name": "isApprovedForAll",
      "outputs": [
        {
          "internalType": "bool",
          "name": "",
          "type": "bool"
        }
      ],
      "stateMutability": "view",
      "type": "function"
    },
    {
      "inputs": [
        {
          "internalType": "uint256",
          "name": "_count",
          "type": "uint256"
        }
      ],
      "name": "mintNFTs",
      "outputs": [],
      "stateMutability": "payable",
      "type": "function"
    },
    {
      "inputs": [],
      "name": "name",
      "outputs": [
        {
          "internalType": "string",
          "name": "",
          "type": "string"
        }
      ],
      "stateMutability": "view",
      "type": "function"
    },
    {
      "inputs": [],
      "name": "owner",
      "outputs": [
        {
          "internalType": "address",
          "name": "",
          "type": "address"
        }
      ],
      "stateMutability": "view",
      "type": "function"
    },
    {
      "inputs": [
        {
          "internalType": "uint256",
          "name": "tokenId",
          "type": "uint256"
        }
      ],
      "name": "ownerOf",
      "outputs": [
        {
          "internalType": "address",
          "name": "",
          "type": "address"
        }
      ],
      "stateMutability": "view",
      "type": "function"
    },
    {
      "inputs": [],
      "name": "renounceOwnership",
      "outputs": [],
      "stateMutability": "nonpayable",
      "type": "function"
    },
    {
      "inputs": [],
      "name": "reserveNFTs",
      "outputs": [],
      "stateMutability": "nonpayable",
      "type": "function"
    },
    {
      "inputs": [
        {
          "internalType": "address",
          "name": "from",
          "type": "address"
        },
        {
          "internalType": "address",
          "name": "to",
          "type": "address"
        },
        {
          "internalType": "uint256",
          "name": "tokenId",
          "type": "uint256"
        }
      ],
      "name": "safeTransferFrom",
      "outputs": [],
      "stateMutability": "nonpayable",
      "type": "function"
    },
    {
      "inputs": [
        {
          "internalType": "address",
          "name": "from",
          "type": "address"
        },
        {
          "internalType": "address",
          "name": "to",
          "type": "address"
        },
        {
          "internalType": "uint256",
          "name": "tokenId",
          "type": "uint256"
        },
        {
          "internalType": "bytes",
          "name": "data",
          "type": "bytes"
        }
      ],
      "name": "safeTransferFrom",
      "outputs": [],
      "stateMutability": "nonpayable",
      "type": "function"
    },
    {
      "inputs": [
        {
          "internalType": "address",
          "name": "operator",
          "type": "address"
        },
        {
          "internalType": "bool",
          "name": "approved",
          "type": "bool"
        }
      ],
      "name": "setApprovalForAll",
      "outputs": [],
      "stateMutability": "nonpayable",
      "type": "function"
    },
    {
      "inputs": [
        {
          "internalType": "string",
          "name": "_baseTokenURI",
          "type": "string"
        }
      ],
      "name": "setBaseURI",
      "outputs": [],
      "stateMutability": "nonpayable",
      "type": "function"
    },
    {
      "inputs": [
        {
          "internalType": "bytes4",
          "name": "interfaceId",
          "type": "bytes4"
        }
      ],
      "name": "supportsInterface",
      "outputs": [
        {
          "internalType": "bool",
          "name": "",
          "type": "bool"
        }
      ],
      "stateMutability": "view",
      "type": "function"
    },
    {
      "inputs": [],
      "name": "symbol",
      "outputs": [
        {
          "internalType": "string",
          "name": "",
          "type": "string"
        }
      ],
      "stateMutability": "view",
      "type": "function"
    },
    {
      "inputs": [
        {
          "internalType": "uint256",
          "name": "index",
          "type": "uint256"
        }
      ],
      "name": "tokenByIndex",
      "outputs": [
        {
          "internalType": "uint256",
          "name": "",
          "type": "uint256"
        }
      ],
      "stateMutability": "view",
      "type": "function"
    },
    {
      "inputs": [
        {
          "internalType": "address",
          "name": "owner",
          "type": "address"
        },
        {
          "internalType": "uint256",
          "name": "index",
          "type": "uint256"
        }
      ],
      "name": "tokenOfOwnerByIndex",
      "outputs": [
        {
          "internalType": "uint256",
          "name": "",
          "type": "uint256"
        }
      ],
      "stateMutability": "view",
      "type": "function"
    },
    {
      "inputs": [
        {
          "internalType": "uint256",
          "name": "tokenId",
          "type": "uint256"
        }
      ],
      "name": "tokenURI",
      "outputs": [
        {
          "internalType": "string",
          "name": "",
          "type": "string"
        }
      ],
      "stateMutability": "view",
      "type": "function"
    },
    {
      "inputs": [
        {
          "internalType": "address",
          "name": "_owner",
          "type": "address"
        }
      ],
      "name": "tokensOfOwner",
      "outputs": [
        {
          "internalType": "uint256[]",
          "name": "",
          "type": "uint256[]"
        }
      ],
      "stateMutability": "view",
      "type": "function"
    },
    {
      "inputs": [],
      "name": "totalSupply",
      "outputs": [
        {
          "internalType": "uint256",
          "name": "",
          "type": "uint256"
        }
      ],
      "stateMutability": "view",
      "type": "function"
    },
    {
      "inputs": [
        {
          "internalType": "address",
          "name": "from",
          "type": "address"
        },
        {
          "internalType": "address",
          "name": "to",
          "type": "address"
        },
        {
          "internalType": "uint256",
          "name": "tokenId",
          "type": "uint256"
        }
      ],
      "name": "transferFrom",
      "outputs": [],
      "stateMutability": "nonpayable",
      "type": "function"
    },
    {
      "inputs": [
        {
          "internalType": "address",
          "name": "newOwner",
          "type": "address"
        }
      ],
      "name": "transferOwnership",
      "outputs": [],
      "stateMutability": "nonpayable",
      "type": "function"
    },
    {
      "inputs": [],
      "name": "withdraw",
      "outputs": [],
      "stateMutability": "payable",
      "type": "function"
    }
  ],
  "bytecode": "0x60806040523480156200001157600080fd5b50604051620047a2380380620047a2833981810160405281019062000037919062000442565b6040518060400160405280600f81526020017f4e465420436f6c6c65637469626c6500000000000000000000000000000000008152506040518060400160405280600481526020017f4e465443000000000000000000000000000000000000000000000000000000008152508160009081620000b49190620006de565b508060019081620000c69190620006de565b505050620000e9620000dd6200010160201b60201c565b6200010960201b60201c565b620000fa81620001cf60201b60201c565b5062000848565b600033905090565b6000600a60009054906101000a900473ffffffffffffffffffffffffffffffffffffffff16905081600a60006101000a81548173ffffffffffffffffffffffffffffffffffffffff021916908373ffffffffffffffffffffffffffffffffffffffff1602179055508173ffffffffffffffffffffffffffffffffffffffff168173ffffffffffffffffffffffffffffffffffffffff167f8be0079c531659141344cd1fd0a4f28419497f9722a3daafe3b4186f6b6457e060405160405180910390a35050565b620001df620001f460201b60201c565b80600c9081620001f09190620006de565b5050565b620002046200010160201b60201c565b73ffffffffffffffffffffffffffffffffffffffff166200022a6200028560201b60201c565b73ffffffffffffffffffffffffffffffffffffffff161462000283576040517f08c379a00000000000000000000000000000000000000000000000000000000081526004016200027a9062000826565b60405180910390fd5b565b6000600a60009054906101000a900473ffffffffffffffffffffffffffffffffffffffff16905090565b6000604051905090565b600080fd5b600080fd5b600080fd5b600080fd5b6000601f19601f8301169050919050565b7f4e487b7100000000000000000000000000000000000000000000000000000000600052604160045260246000fd5b6200031882620002cd565b810181811067ffffffffffffffff821117156200033a5762000339620002de565b5b80604052505050565b60006200034f620002af565b90506200035d82826200030d565b919050565b600067ffffffffffffffff82111562000380576200037f620002de565b5b6200038b82620002cd565b9050602081019050919050565b60005b83811015620003b85780820151818401526020810190506200039b565b60008484015250505050565b6000620003db620003d58462000362565b62000343565b905082815260208101848484011115620003fa57620003f9620002c8565b5b6200040784828562000398565b509392505050565b600082601f830112620004275762000426620002c3565b5b815162000439848260208601620003c4565b91505092915050565b6000602082840312156200045b576200045a620002b9565b5b600082015167ffffffffffffffff8111156200047c576200047b620002be565b5b6200048a848285016200040f565b91505092915050565b600081519050919050565b7f4e487b7100000000000000000000000000000000000000000000000000000000600052602260045260246000fd5b60006002820490506001821680620004e657607f821691505b602082108103620004fc57620004fb6200049e565b5b50919050565b60008190508160005260206000209050919050565b60006020601f8301049050919050565b600082821b905092915050565b600060088302620005667fffffffffffffffffffffffffffffffffffffffffffffffffffffffffffffffff8262000527565b62000572868362000527565b95508019841693508086168417925050509392505050565b6000819050919050565b6000819050919050565b6000620005bf620005b9620005b3846200058a565b62000594565b6200058a565b9050919050565b6000819050919050565b620005db836200059e565b620005f3620005ea82620005c6565b84845462000534565b825550505050565b600090565b6200060a620005fb565b62000617818484620005d0565b505050565b5b818110156200063f576200063360008262000600565b6001810190506200061d565b5050565b601f8211156200068e57620006588162000502565b620006638462000517565b8101602085101562000673578190505b6200068b620006828562000517565b8301826200061c565b50505b505050565b600082821c905092915050565b6000620006b36000198460080262000693565b1980831691505092915050565b6000620006ce8383620006a0565b9150826002028217905092915050565b620006e98262000493565b67ffffffffffffffff811115620007055762000704620002de565b5b620007118254620004cd565b6200071e82828562000643565b600060209050601f83116001811462000756576000841562000741578287015190505b6200074d8582620006c0565b865550620007bd565b601f198416620007668662000502565b60005b82811015620007905784890151825560018201915060208501945060208101905062000769565b86831015620007b05784890151620007ac601f891682620006a0565b8355505b6001600288020188555050505b505050505050565b600082825260208201905092915050565b7f4f776e61626c653a2063616c6c6572206973206e6f7420746865206f776e6572600082015250565b60006200080e602083620007c5565b91506200081b82620007d6565b602082019050919050565b600060208201905081810360008301526200084181620007ff565b9050919050565b613f4a80620008586000396000f3fe6080604052600436106101b75760003560e01c806355f804b3116100ec57806395d89b411161008a578063c87b56dd11610064578063c87b56dd146105de578063d547cfb71461061b578063e985e9c514610646578063f2fde38b14610683576101b7565b806395d89b4114610561578063a22cb4651461058c578063b88d4fde146105b5576101b7565b8063715018a6116100c6578063715018a6146104b75780638462151c146104ce5780638d859f3e1461050b5780638da5cb5b14610536576101b7565b806355f804b3146104145780636352211e1461043d57806370a082311461047a576101b7565b806323b872dd116101595780633b4b1381116101335780633b4b1381146103885780633ccfd60b146103a457806342842e0e146103ae5780634f6ccce7146103d7576101b7565b806323b872dd146102f75780632f745c591461032057806332cb6b0c1461035d576101b7565b8063095ea7b311610195578063095ea7b31461026157806309d42b301461028a578063144100c7146102b557806318160ddd146102cc576101b7565b806301ffc9a7146101bc57806306fdde03146101f9578063081812fc14610224575b600080fd5b3480156101c857600080fd5b506101e360048036038101906101de91906126e1565b6106ac565b6040516101f09190612729565b60405180910390f35b34801561020557600080fd5b5061020e610726565b60405161021b91906127d4565b60405180910390f35b34801561023057600080fd5b5061024b6004803603810190610246919061282c565b6107b8565b604051610258919061289a565b60405180910390f35b34801561026d57600080fd5b50610288600480360381019061028391906128e1565b6107fe565b005b34801561029657600080fd5b5061029f610915565b6040516102ac9190612930565b60405180910390f35b3480156102c157600080fd5b506102ca61091a565b005b3480156102d857600080fd5b506102e16109b1565b6040516102ee9190612930565b60405180910390f35b34801561030357600080fd5b5061031e6004803603810190610319919061294b565b6109be565b005b34801561032c57600080fd5b50610347600480360381019061034291906128e1565b610a1e565b6040516103549190612930565b60405180910390f35b34801561036957600080fd5b50610372610ac3565b60405161037f9190612930565b60405180910390f35b6103a2600480360381019061039d919061282c565b610ac8565b005b6103ac610c03565b005b3480156103ba57600080fd5b506103d560048036038101906103d0919061294b565b610d03565b005b3480156103e357600080fd5b506103fe60048036038101906103f9919061282c565b610d23565b60405161040b9190612930565b60405180910390f35b34801561042057600080fd5b5061043b60048036038101906104369190612ad3565b610d94565b005b34801561044957600080fd5b50610464600480360381019061045f919061282c565b610daf565b604051610471919061289a565b60405180910390f35b34801561048657600080fd5b506104a1600480360381019061049c9190612b1c565b610e60565b6040516104ae9190612930565b60405180910390f35b3480156104c357600080fd5b506104cc610f17565b005b3480156104da57600080fd5b506104f560048036038101906104f09190612b1c565b610f2b565b6040516105029190612c07565b60405180910390f35b34801561051757600080fd5b50610520610fd9565b60405161052d9190612930565b60405180910390f35b34801561054257600080fd5b5061054b610fe4565b604051610558919061289a565b60405180910390f35b34801561056d57600080fd5b5061057661100e565b60405161058391906127d4565b60405180910390f35b34801561059857600080fd5b506105b360048036038101906105ae9190612c55565b6110a0565b005b3480156105c157600080fd5b506105dc60048036038101906105d79190612d36565b6110b6565b005b3480156105ea57600080fd5b506106056004803603810190610600919061282c565b611118565b60405161061291906127d4565b60405180910390f35b34801561062757600080fd5b50610630611180565b60405161063d91906127d4565b60405180910390f35b34801561065257600080fd5b5061066d60048036038101906106689190612db9565b61120e565b60405161067a9190612729565b60405180910390f35b34801561068f57600080fd5b506106aa60048036038101906106a59190612b1c565b6112a2565b005b60007f780e9d63000000000000000000000000000000000000000000000000000000007bffffffffffffffffffffffffffffffffffffffffffffffffffffffff1916827bffffffffffffffffffffffffffffffffffffffffffffffffffffffff1916148061071f575061071e82611325565b5b9050919050565b60606000805461073590612e28565b80601f016020809104026020016040519081016040528092919081815260200182805461076190612e28565b80156107ae5780601f10610783576101008083540402835291602001916107ae565b820191906000526020600020905b81548152906001019060200180831161079157829003601f168201915b5050505050905090565b60006107c382611407565b6004600083815260200190815260200160002060009054906101000a900473ffffffffffffffffffffffffffffffffffffffff169050919050565b600061080982610daf565b90508073ffffffffffffffffffffffffffffffffffffffff168373ffffffffffffffffffffffffffffffffffffffff1603610879576040517f08c379a000000000000000000000000000000000000000000000000000000000815260040161087090612ecb565b60405180910390fd5b8073ffffffffffffffffffffffffffffffffffffffff16610898611452565b73ffffffffffffffffffffffffffffffffffffffff1614806108c757506108c6816108c1611452565b61120e565b5b610906576040517f08c379a00000000000000000000000000000000000000000000000000000000081526004016108fd90612f5d565b60405180910390fd5b610910838361145a565b505050565b600581565b610922611513565b600061092e600b611591565b90506064610946600a8361159f90919063ffffffff16565b10610986576040517f08c379a000000000000000000000000000000000000000000000000000000000815260040161097d90612fc9565b60405180910390fd5b60005b600a8110156109ad5761099a6115b5565b80806109a590613018565b915050610989565b5050565b6000600880549050905090565b6109cf6109c9611452565b826115da565b610a0e576040517f08c379a0000000000000000000000000000000000000000000000000000000008152600401610a05906130d2565b60405180910390fd5b610a1983838361166f565b505050565b6000610a2983610e60565b8210610a6a576040517f08c379a0000000000000000000000000000000000000000000000000000000008152600401610a6190613164565b60405180910390fd5b600660008473ffffffffffffffffffffffffffffffffffffffff1673ffffffffffffffffffffffffffffffffffffffff168152602001908152602001600020600083815260200190815260200160002054905092915050565b606481565b6000610ad4600b611591565b90506064610aeb838361159f90919063ffffffff16565b1115610b2c576040517f08c379a0000000000000000000000000000000000000000000000000000000008152600401610b23906131d0565b60405180910390fd5b600082118015610b3d575060058211155b610b7c576040517f08c379a0000000000000000000000000000000000000000000000000000000008152600401610b7390613262565b60405180910390fd5b610b9682662386f26fc100006118d590919063ffffffff16565b341015610bd8576040517f08c379a0000000000000000000000000000000000000000000000000000000008152600401610bcf906132f4565b60405180910390fd5b60005b82811015610bfe57610beb6115b5565b8080610bf690613018565b915050610bdb565b505050565b610c0b611513565b600047905060008111610c53576040517f08c379a0000000000000000000000000000000000000000000000000000000008152600401610c4a90613360565b60405180910390fd5b60003373ffffffffffffffffffffffffffffffffffffffff1682604051610c79906133b1565b60006040518083038185875af1925050503d8060008114610cb6576040519150601f19603f3d011682016040523d82523d6000602084013e610cbb565b606091505b5050905080610cff576040517f08c379a0000000000000000000000000000000000000000000000000000000008152600401610cf690613412565b60405180910390fd5b5050565b610d1e838383604051806020016040528060008152506110b6565b505050565b6000610d2d6109b1565b8210610d6e576040517f08c379a0000000000000000000000000000000000000000000000000000000008152600401610d65906134a4565b60405180910390fd5b60088281548110610d8257610d816134c4565b5b90600052602060002001549050919050565b610d9c611513565b80600c9081610dab919061369f565b5050565b6000806002600084815260200190815260200160002060009054906101000a900473ffffffffffffffffffffffffffffffffffffffff169050600073ffffffffffffffffffffffffffffffffffffffff168173ffffffffffffffffffffffffffffffffffffffff1603610e57576040517f08c379a0000000000000000000000000000000000000000000000000000000008152600401610e4e906137bd565b60405180910390fd5b80915050919050565b60008073ffffffffffffffffffffffffffffffffffffffff168273ffffffffffffffffffffffffffffffffffffffff1603610ed0576040517f08c379a0000000000000000000000000000000000000000000000000000000008152600401610ec79061384f565b60405180910390fd5b600360008373ffffffffffffffffffffffffffffffffffffffff1673ffffffffffffffffffffffffffffffffffffffff168152602001908152602001600020549050919050565b610f1f611513565b610f2960006118eb565b565b60606000610f3883610e60565b905060008167ffffffffffffffff811115610f5657610f556129a8565b5b604051908082528060200260200182016040528015610f845781602001602082028036833780820191505090505b50905060005b82811015610fce57610f9c8582610a1e565b828281518110610faf57610fae6134c4565b5b6020026020010181815250508080610fc690613018565b915050610f8a565b508092505050919050565b662386f26fc1000081565b6000600a60009054906101000a900473ffffffffffffffffffffffffffffffffffffffff16905090565b60606001805461101d90612e28565b80601f016020809104026020016040519081016040528092919081815260200182805461104990612e28565b80156110965780601f1061106b57610100808354040283529160200191611096565b820191906000526020600020905b81548152906001019060200180831161107957829003601f168201915b5050505050905090565b6110b26110ab611452565b83836119b1565b5050565b6110c76110c1611452565b836115da565b611106576040517f08c379a00000000000000000000000000000000000000000000000000000000081526004016110fd906130d2565b60405180910390fd5b61111284848484611b1d565b50505050565b606061112382611407565b600061112d611b79565b9050600081511161114d5760405180602001604052806000815250611178565b8061115784611c0b565b6040516020016111689291906138ab565b6040516020818303038152906040525b915050919050565b600c805461118d90612e28565b80601f01602080910402602001604051908101604052809291908181526020018280546111b990612e28565b80156112065780601f106111db57610100808354040283529160200191611206565b820191906000526020600020905b8154815290600101906020018083116111e957829003601f168201915b505050505081565b6000600560008473ffffffffffffffffffffffffffffffffffffffff1673ffffffffffffffffffffffffffffffffffffffff16815260200190815260200160002060008373ffffffffffffffffffffffffffffffffffffffff1673ffffffffffffffffffffffffffffffffffffffff16815260200190815260200160002060009054906101000a900460ff16905092915050565b6112aa611513565b600073ffffffffffffffffffffffffffffffffffffffff168173ffffffffffffffffffffffffffffffffffffffff1603611319576040517f08c379a000000000000000000000000000000000000000000000000000000000815260040161131090613941565b60405180910390fd5b611322816118eb565b50565b60007f80ac58cd000000000000000000000000000000000000000000000000000000007bffffffffffffffffffffffffffffffffffffffffffffffffffffffff1916827bffffffffffffffffffffffffffffffffffffffffffffffffffffffff191614806113f057507f5b5e139f000000000000000000000000000000000000000000000000000000007bffffffffffffffffffffffffffffffffffffffffffffffffffffffff1916827bffffffffffffffffffffffffffffffffffffffffffffffffffffffff1916145b8061140057506113ff82611d6b565b5b9050919050565b61141081611dd5565b61144f576040517f08c379a0000000000000000000000000000000000000000000000000000000008152600401611446906137bd565b60405180910390fd5b50565b600033905090565b816004600083815260200190815260200160002060006101000a81548173ffffffffffffffffffffffffffffffffffffffff021916908373ffffffffffffffffffffffffffffffffffffffff160217905550808273ffffffffffffffffffffffffffffffffffffffff166114cd83610daf565b73ffffffffffffffffffffffffffffffffffffffff167f8c5be1e5ebec7d5bd14f71427d1e84f3dd0314c0f7b2291e5b200ac8c7c3b92560405160405180910390a45050565b61151b611452565b73ffffffffffffffffffffffffffffffffffffffff16611539610fe4565b73ffffffffffffffffffffffffffffffffffffffff161461158f576040517f08c379a0000000000000000000000000000000000000000000000000000000008152600401611586906139ad565b60405180910390fd5b565b600081600001549050919050565b600081836115ad91906139cd565b905092915050565b60006115c1600b611591565b90506115cd3382611e41565b6115d7600b611e5f565b50565b6000806115e683610daf565b90508073ffffffffffffffffffffffffffffffffffffffff168473ffffffffffffffffffffffffffffffffffffffff1614806116285750611627818561120e565b5b8061166657508373ffffffffffffffffffffffffffffffffffffffff1661164e846107b8565b73ffffffffffffffffffffffffffffffffffffffff16145b91505092915050565b8273ffffffffffffffffffffffffffffffffffffffff1661168f82610daf565b73ffffffffffffffffffffffffffffffffffffffff16146116e5576040517f08c379a00000000000000000000000000000000000000000000000000000000081526004016116dc90613a73565b60405180910390fd5b600073ffffffffffffffffffffffffffffffffffffffff168273ffffffffffffffffffffffffffffffffffffffff1603611754576040517f08c379a000000000000000000000000000000000000000000000000000000000815260040161174b90613b05565b60405180910390fd5b61175f838383611e75565b61176a60008261145a565b6001600360008573ffffffffffffffffffffffffffffffffffffffff1673ffffffffffffffffffffffffffffffffffffffff16815260200190815260200160002060008282546117ba9190613b25565b925050819055506001600360008473ffffffffffffffffffffffffffffffffffffffff1673ffffffffffffffffffffffffffffffffffffffff168152602001908152602001600020600082825461181191906139cd565b92505081905550816002600083815260200190815260200160002060006101000a81548173ffffffffffffffffffffffffffffffffffffffff021916908373ffffffffffffffffffffffffffffffffffffffff160217905550808273ffffffffffffffffffffffffffffffffffffffff168473ffffffffffffffffffffffffffffffffffffffff167fddf252ad1be2c89b69c2b068fc378daa952ba7f163c4a11628f55a4df523b3ef60405160405180910390a46118d0838383611f87565b505050565b600081836118e39190613b59565b905092915050565b6000600a60009054906101000a900473ffffffffffffffffffffffffffffffffffffffff16905081600a60006101000a81548173ffffffffffffffffffffffffffffffffffffffff021916908373ffffffffffffffffffffffffffffffffffffffff1602179055508173ffffffffffffffffffffffffffffffffffffffff168173ffffffffffffffffffffffffffffffffffffffff167f8be0079c531659141344cd1fd0a4f28419497f9722a3daafe3b4186f6b6457e060405160405180910390a35050565b8173ffffffffffffffffffffffffffffffffffffffff168373ffffffffffffffffffffffffffffffffffffffff1603611a1f576040517f08c379a0000000000000000000000000000000000000000000000000000000008152600401611a1690613be7565b60405180910390fd5b80600560008573ffffffffffffffffffffffffffffffffffffffff1673ffffffffffffffffffffffffffffffffffffffff16815260200190815260200160002060008473ffffffffffffffffffffffffffffffffffffffff1673ffffffffffffffffffffffffffffffffffffffff16815260200190815260200160002060006101000a81548160ff0219169083151502179055508173ffffffffffffffffffffffffffffffffffffffff168373ffffffffffffffffffffffffffffffffffffffff167f17307eab39ab6107e8899845ad3d59bd9653f200f220920489ca2b5937696c3183604051611b109190612729565b60405180910390a3505050565b611b2884848461166f565b611b3484848484611f8c565b611b73576040517f08c379a0000000000000000000000000000000000000000000000000000000008152600401611b6a90613c79565b60405180910390fd5b50505050565b6060600c8054611b8890612e28565b80601f0160208091040260200160405190810160405280929190818152602001828054611bb490612e28565b8015611c015780601f10611bd657610100808354040283529160200191611c01565b820191906000526020600020905b815481529060010190602001808311611be457829003601f168201915b5050505050905090565b606060008203611c52576040518060400160405280600181526020017f30000000000000000000000000000000000000000000000000000000000000008152509050611d66565b600082905060005b60008214611c84578080611c6d90613018565b915050600a82611c7d9190613cc8565b9150611c5a565b60008167ffffffffffffffff811115611ca057611c9f6129a8565b5b6040519080825280601f01601f191660200182016040528015611cd25781602001600182028036833780820191505090505b5090505b60008514611d5f57600182611ceb9190613b25565b9150600a85611cfa9190613cf9565b6030611d0691906139cd565b60f81b818381518110611d1c57611d1b6134c4565b5b60200101907effffffffffffffffffffffffffffffffffffffffffffffffffffffffffffff1916908160001a905350600a85611d589190613cc8565b9450611cd6565b8093505050505b919050565b60007f01ffc9a7000000000000000000000000000000000000000000000000000000007bffffffffffffffffffffffffffffffffffffffffffffffffffffffff1916827bffffffffffffffffffffffffffffffffffffffffffffffffffffffff1916149050919050565b60008073ffffffffffffffffffffffffffffffffffffffff166002600084815260200190815260200160002060009054906101000a900473ffffffffffffffffffffffffffffffffffffffff1673ffffffffffffffffffffffffffffffffffffffff1614159050919050565b611e5b828260405180602001604052806000815250612113565b5050565b6001816000016000828254019250508190555050565b611e8083838361216e565b600073ffffffffffffffffffffffffffffffffffffffff168373ffffffffffffffffffffffffffffffffffffffff1603611ec257611ebd81612173565b611f01565b8173ffffffffffffffffffffffffffffffffffffffff168373ffffffffffffffffffffffffffffffffffffffff1614611f0057611eff83826121bc565b5b5b600073ffffffffffffffffffffffffffffffffffffffff168273ffffffffffffffffffffffffffffffffffffffff1603611f4357611f3e81612329565b611f82565b8273ffffffffffffffffffffffffffffffffffffffff168273ffffffffffffffffffffffffffffffffffffffff1614611f8157611f8082826123fa565b5b5b505050565b505050565b6000611fad8473ffffffffffffffffffffffffffffffffffffffff16612479565b15612106578373ffffffffffffffffffffffffffffffffffffffff1663150b7a02611fd6611452565b8786866040518563ffffffff1660e01b8152600401611ff89493929190613d7f565b6020604051808303816000875af192505050801561203457506040513d601f19601f820116820180604052508101906120319190613de0565b60015b6120b6573d8060008114612064576040519150601f19603f3d011682016040523d82523d6000602084013e612069565b606091505b5060008151036120ae576040517f08c379a00000000000000000000000000000000000000000000000000000000081526004016120a590613c79565b60405180910390fd5b805181602001fd5b63150b7a0260e01b7bffffffffffffffffffffffffffffffffffffffffffffffffffffffff1916817bffffffffffffffffffffffffffffffffffffffffffffffffffffffff19161491505061210b565b600190505b949350505050565b61211d838361249c565b61212a6000848484611f8c565b612169576040517f08c379a000000000000000000000000000000000000000000000000000000000815260040161216090613c79565b60405180910390fd5b505050565b505050565b6008805490506009600083815260200190815260200160002081905550600881908060018154018082558091505060019003906000526020600020016000909190919091505550565b600060016121c984610e60565b6121d39190613b25565b90506000600760008481526020019081526020016000205490508181146122b8576000600660008673ffffffffffffffffffffffffffffffffffffffff1673ffffffffffffffffffffffffffffffffffffffff168152602001908152602001600020600084815260200190815260200160002054905080600660008773ffffffffffffffffffffffffffffffffffffffff1673ffffffffffffffffffffffffffffffffffffffff168152602001908152602001600020600084815260200190815260200160002081905550816007600083815260200190815260200160002081905550505b6007600084815260200190815260200160002060009055600660008573ffffffffffffffffffffffffffffffffffffffff1673ffffffffffffffffffffffffffffffffffffffff16815260200190815260200160002060008381526020019081526020016000206000905550505050565b6000600160088054905061233d9190613b25565b905060006009600084815260200190815260200160002054905060006008838154811061236d5761236c6134c4565b5b90600052602060002001549050806008838154811061238f5761238e6134c4565b5b9060005260206000200181905550816009600083815260200190815260200160002081905550600960008581526020019081526020016000206000905560088054806123de576123dd613e0d565b5b6001900381819060005260206000200160009055905550505050565b600061240583610e60565b905081600660008573ffffffffffffffffffffffffffffffffffffffff1673ffffffffffffffffffffffffffffffffffffffff168152602001908152602001600020600083815260200190815260200160002081905550806007600084815260200190815260200160002081905550505050565b6000808273ffffffffffffffffffffffffffffffffffffffff163b119050919050565b600073ffffffffffffffffffffffffffffffffffffffff168273ffffffffffffffffffffffffffffffffffffffff160361250b576040517f08c379a000000000000000000000000000000000000000000000000000000000815260040161250290613e88565b60405180910390fd5b61251481611dd5565b15612554576040517f08c379a000000000000000000000000000000000000000000000000000000000815260040161254b90613ef4565b60405180910390fd5b61256060008383611e75565b6001600360008473ffffffffffffffffffffffffffffffffffffffff1673ffffffffffffffffffffffffffffffffffffffff16815260200190815260200160002060008282546125b091906139cd565b92505081905550816002600083815260200190815260200160002060006101000a81548173ffffffffffffffffffffffffffffffffffffffff021916908373ffffffffffffffffffffffffffffffffffffffff160217905550808273ffffffffffffffffffffffffffffffffffffffff16600073ffffffffffffffffffffffffffffffffffffffff167fddf252ad1be2c89b69c2b068fc378daa952ba7f163c4a11628f55a4df523b3ef60405160405180910390a461267160008383611f87565b5050565b6000604051905090565b600080fd5b600080fd5b60007fffffffff0000000000000000000000000000000000000000000000000000000082169050919050565b6126be81612689565b81146126c957600080fd5b50565b6000813590506126db816126b5565b92915050565b6000602082840312156126f7576126f661267f565b5b6000612705848285016126cc565b91505092915050565b60008115159050919050565b6127238161270e565b82525050565b600060208201905061273e600083018461271a565b92915050565b600081519050919050565b600082825260208201905092915050565b60005b8381101561277e578082015181840152602081019050612763565b60008484015250505050565b6000601f19601f8301169050919050565b60006127a682612744565b6127b0818561274f565b93506127c0818560208601612760565b6127c98161278a565b840191505092915050565b600060208201905081810360008301526127ee818461279b565b905092915050565b6000819050919050565b612809816127f6565b811461281457600080fd5b50565b60008135905061282681612800565b92915050565b6000602082840312156128425761284161267f565b5b600061285084828501612817565b91505092915050565b600073ffffffffffffffffffffffffffffffffffffffff82169050919050565b600061288482612859565b9050919050565b61289481612879565b82525050565b60006020820190506128af600083018461288b565b92915050565b6128be81612879565b81146128c957600080fd5b50565b6000813590506128db816128b5565b92915050565b600080604083850312156128f8576128f761267f565b5b6000612906858286016128cc565b925050602061291785828601612817565b9150509250929050565b61292a816127f6565b82525050565b60006020820190506129456000830184612921565b92915050565b6000806000606084860312156129645761296361267f565b5b6000612972868287016128cc565b9350506020612983868287016128cc565b925050604061299486828701612817565b9150509250925092565b600080fd5b600080fd5b7f4e487b7100000000000000000000000000000000000000000000000000000000600052604160045260246000fd5b6129e08261278a565b810181811067ffffffffffffffff821117156129ff576129fe6129a8565b5b80604052505050565b6000612a12612675565b9050612a1e82826129d7565b919050565b600067ffffffffffffffff821115612a3e57612a3d6129a8565b5b612a478261278a565b9050602081019050919050565b82818337600083830152505050565b6000612a76612a7184612a23565b612a08565b905082815260208101848484011115612a9257612a916129a3565b5b612a9d848285612a54565b509392505050565b600082601f830112612aba57612ab961299e565b5b8135612aca848260208601612a63565b91505092915050565b600060208284031215612ae957612ae861267f565b5b600082013567ffffffffffffffff811115612b0757612b06612684565b5b612b1384828501612aa5565b91505092915050565b600060208284031215612b3257612b3161267f565b5b6000612b40848285016128cc565b91505092915050565b600081519050919050565b600082825260208201905092915050565b6000819050602082019050919050565b612b7e816127f6565b82525050565b6000612b908383612b75565b60208301905092915050565b6000602082019050919050565b6000612bb482612b49565b612bbe8185612b54565b9350612bc983612b65565b8060005b83811015612bfa578151612be18882612b84565b9750612bec83612b9c565b925050600181019050612bcd565b5085935050505092915050565b60006020820190508181036000830152612c218184612ba9565b905092915050565b612c328161270e565b8114612c3d57600080fd5b50565b600081359050612c4f81612c29565b92915050565b60008060408385031215612c6c57612c6b61267f565b5b6000612c7a858286016128cc565b9250506020612c8b85828601612c40565b9150509250929050565b600067ffffffffffffffff821115612cb057612caf6129a8565b5b612cb98261278a565b9050602081019050919050565b6000612cd9612cd484612c95565b612a08565b905082815260208101848484011115612cf557612cf46129a3565b5b612d00848285612a54565b509392505050565b600082601f830112612d1d57612d1c61299e565b5b8135612d2d848260208601612cc6565b91505092915050565b60008060008060808587031215612d5057612d4f61267f565b5b6000612d5e878288016128cc565b9450506020612d6f878288016128cc565b9350506040612d8087828801612817565b925050606085013567ffffffffffffffff811115612da157612da0612684565b5b612dad87828801612d08565b91505092959194509250565b60008060408385031215612dd057612dcf61267f565b5b6000612dde858286016128cc565b9250506020612def858286016128cc565b9150509250929050565b7f4e487b7100000000000000000000000000000000000000000000000000000000600052602260045260246000fd5b60006002820490506001821680612e4057607f821691505b602082108103612e5357612e52612df9565b5b50919050565b7f4552433732313a20617070726f76616c20746f2063757272656e74206f776e6560008201527f7200000000000000000000000000000000000000000000000000000000000000602082015250565b6000612eb560218361274f565b9150612ec082612e59565b604082019050919050565b60006020820190508181036000830152612ee481612ea8565b9050919050565b7f4552433732313a20617070726f76652063616c6c6572206973206e6f7420746f60008201527f6b656e206f776e6572206e6f7220617070726f76656420666f7220616c6c0000602082015250565b6000612f47603e8361274f565b9150612f5282612eeb565b604082019050919050565b60006020820190508181036000830152612f7681612f3a565b9050919050565b7f4e6f7420656e6f756768204e465473206c65667420746f207265736572766500600082015250565b6000612fb3601f8361274f565b9150612fbe82612f7d565b602082019050919050565b60006020820190508181036000830152612fe281612fa6565b9050919050565b7f4e487b7100000000000000000000000000000000000000000000000000000000600052601160045260246000fd5b6000613023826127f6565b91507fffffffffffffffffffffffffffffffffffffffffffffffffffffffffffffffff820361305557613054612fe9565b5b600182019050919050565b7f4552433732313a2063616c6c6572206973206e6f7420746f6b656e206f776e6560008201527f72206e6f7220617070726f766564000000000000000000000000000000000000602082015250565b60006130bc602e8361274f565b91506130c782613060565b604082019050919050565b600060208201905081810360008301526130eb816130af565b9050919050565b7f455243373231456e756d657261626c653a206f776e657220696e646578206f7560008201527f74206f6620626f756e6473000000000000000000000000000000000000000000602082015250565b600061314e602b8361274f565b9150613159826130f2565b604082019050919050565b6000602082019050818103600083015261317d81613141565b9050919050565b7f4e6f7420656e6f756768204e465473206c656674210000000000000000000000600082015250565b60006131ba60158361274f565b91506131c582613184565b602082019050919050565b600060208201905081810360008301526131e9816131ad565b9050919050565b7f43616e6e6f74206d696e7420737065636966696564206e756d626572206f662060008201527f4e4654732e000000000000000000000000000000000000000000000000000000602082015250565b600061324c60258361274f565b9150613257826131f0565b604082019050919050565b6000602082019050818103600083015261327b8161323f565b9050919050565b7f4e6f7420656e6f75676820657468657220746f207075726368617365204e465460008201527f732e000000000000000000000000000000000000000000000000000000000000602082015250565b60006132de60228361274f565b91506132e982613282565b604082019050919050565b6000602082019050818103600083015261330d816132d1565b9050919050565b7f4e6f206574686572206c65667420746f20776974686472617700000000000000600082015250565b600061334a60198361274f565b915061335582613314565b602082019050919050565b600060208201905081810360008301526133798161333d565b9050919050565b600081905092915050565b50565b600061339b600083613380565b91506133a68261338b565b600082019050919050565b60006133bc8261338e565b9150819050919050565b7f5472616e73666572206661696c65642e00000000000000000000000000000000600082015250565b60006133fc60108361274f565b9150613407826133c6565b602082019050919050565b6000602082019050818103600083015261342b816133ef565b9050919050565b7f455243373231456e756d657261626c653a20676c6f62616c20696e646578206f60008201527f7574206f6620626f756e64730000000000000000000000000000000000000000602082015250565b600061348e602c8361274f565b915061349982613432565b604082019050919050565b600060208201905081810360008301526134bd81613481565b9050919050565b7f4e487b7100000000000000000000000000000000000000000000000000000000600052603260045260246000fd5b60008190508160005260206000209050919050565b60006020601f8301049050919050565b600082821b905092915050565b6000600883026135557fffffffffffffffffffffffffffffffffffffffffffffffffffffffffffffffff82613518565b61355f8683613518565b95508019841693508086168417925050509392505050565b6000819050919050565b600061359c613597613592846127f6565b613577565b6127f6565b9050919050565b6000819050919050565b6135b683613581565b6135ca6135c2826135a3565b848454613525565b825550505050565b600090565b6135df6135d2565b6135ea8184846135ad565b505050565b5b8181101561360e576136036000826135d7565b6001810190506135f0565b5050565b601f82111561365357613624816134f3565b61362d84613508565b8101602085101561363c578190505b61365061364885613508565b8301826135ef565b50505b505050565b600082821c905092915050565b600061367660001984600802613658565b1980831691505092915050565b600061368f8383613665565b9150826002028217905092915050565b6136a882612744565b67ffffffffffffffff8111156136c1576136c06129a8565b5b6136cb8254612e28565b6136d6828285613612565b600060209050601f83116001811461370957600084156136f7578287015190505b6137018582613683565b865550613769565b601f198416613717866134f3565b60005b8281101561373f5784890151825560018201915060208501945060208101905061371a565b8683101561375c5784890151613758601f891682613665565b8355505b6001600288020188555050505b505050505050565b7f4552433732313a20696e76616c696420746f6b656e2049440000000000000000600082015250565b60006137a760188361274f565b91506137b282613771565b602082019050919050565b600060208201905081810360008301526137d68161379a565b9050919050565b7f4552433732313a2061646472657373207a65726f206973206e6f74206120766160008201527f6c6964206f776e65720000000000000000000000000000000000000000000000602082015250565b600061383960298361274f565b9150613844826137dd565b604082019050919050565b600060208201905081810360008301526138688161382c565b9050919050565b600081905092915050565b600061388582612744565b61388f818561386f565b935061389f818560208601612760565b80840191505092915050565b60006138b7828561387a565b91506138c3828461387a565b91508190509392505050565b7f4f776e61626c653a206e6577206f776e657220697320746865207a65726f206160008201527f6464726573730000000000000000000000000000000000000000000000000000602082015250565b600061392b60268361274f565b9150613936826138cf565b604082019050919050565b6000602082019050818103600083015261395a8161391e565b9050919050565b7f4f776e61626c653a2063616c6c6572206973206e6f7420746865206f776e6572600082015250565b600061399760208361274f565b91506139a282613961565b602082019050919050565b600060208201905081810360008301526139c68161398a565b9050919050565b60006139d8826127f6565b91506139e3836127f6565b92508282019050808211156139fb576139fa612fe9565b5b92915050565b7f4552433732313a207472616e736665722066726f6d20696e636f72726563742060008201527f6f776e6572000000000000000000000000000000000000000000000000000000602082015250565b6000613a5d60258361274f565b9150613a6882613a01565b604082019050919050565b60006020820190508181036000830152613a8c81613a50565b9050919050565b7f4552433732313a207472616e7366657220746f20746865207a65726f2061646460008201527f7265737300000000000000000000000000000000000000000000000000000000602082015250565b6000613aef60248361274f565b9150613afa82613a93565b604082019050919050565b60006020820190508181036000830152613b1e81613ae2565b9050919050565b6000613b30826127f6565b9150613b3b836127f6565b9250828203905081811115613b5357613b52612fe9565b5b92915050565b6000613b64826127f6565b9150613b6f836127f6565b9250828202613b7d816127f6565b91508282048414831517613b9457613b93612fe9565b5b5092915050565b7f4552433732313a20617070726f766520746f2063616c6c657200000000000000600082015250565b6000613bd160198361274f565b9150613bdc82613b9b565b602082019050919050565b60006020820190508181036000830152613c0081613bc4565b9050919050565b7f4552433732313a207472616e7366657220746f206e6f6e20455243373231526560008201527f63656976657220696d706c656d656e7465720000000000000000000000000000602082015250565b6000613c6360328361274f565b9150613c6e82613c07565b604082019050919050565b60006020820190508181036000830152613c9281613c56565b9050919050565b7f4e487b7100000000000000000000000000000000000000000000000000000000600052601260045260246000fd5b6000613cd3826127f6565b9150613cde836127f6565b925082613cee57613ced613c99565b5b828204905092915050565b6000613d04826127f6565b9150613d0f836127f6565b925082613d1f57613d1e613c99565b5b828206905092915050565b600081519050919050565b600082825260208201905092915050565b6000613d5182613d2a565b613d5b8185613d35565b9350613d6b818560208601612760565b613d748161278a565b840191505092915050565b6000608082019050613d94600083018761288b565b613da1602083018661288b565b613dae6040830185612921565b8181036060830152613dc08184613d46565b905095945050505050565b600081519050613dda816126b5565b92915050565b600060208284031215613df657613df561267f565b5b6000613e0484828501613dcb565b91505092915050565b7f4e487b7100000000000000000000000000000000000000000000000000000000600052603160045260246000fd5b7f4552433732313a206d696e7420746f20746865207a65726f2061646472657373600082015250565b6000613e7260208361274f565b9150613e7d82613e3c565b602082019050919050565b60006020820190508181036000830152613ea181613e65565b9050919050565b7f4552433732313a20746f6b656e20616c7265616479206d696e74656400000000600082015250565b6000613ede601c8361274f565b9150613ee982613ea8565b602082019050919050565b60006020820190508181036000830152613f0d81613ed1565b905091905056fea264697066735822122089c99155930f4018ebefa4643e22cc3b1c4113dadfd3d24540954c85d6c7db0a64736f6c63430008110033",
  "linkReferences": {},
  "deployedLinkReferences": {}
}